:1000000000308A00282800000A108A100A1182078E
:10001000C034F934A434B034993492348234F8348E
:100020008034903424308400831300080319252879
:100030000630F800F701F70B1B28F80B1A287B3065
:10004000F700F70B2128800B18288A110A12642860
:1000500003081F398300FF30A20083160317090825
:10006000C039890003131F129F1200300317880044
:1000700083128701880189018313003083160313DB
:1000800087008312A200831688008312A001A01BA0
:100090004D282008093C031C682820080420A300E0
:1000A0000030A200831687018312230887002008EE
:1000B0000420A300831688018312230888000230DD
:1000C000A300FA30A4001228A30B6128A00A472835
:0400D000462863005B
:04400E00E22FFF3F5F
:00000001FF
;PIC16F887
;CRC=8550  CREATED="03-Nov-18 23:55"
