:1000000000308A0018280000223084008313000882
:10001000031917280630F800F701F70B0D28F80B25
:100020000C287B30F700F70B1328800B0A280800F8
:1000300003081F398300FF30A00083160317090847
:10004000C039890003131F129F1200300317880064
:1000500083128701880189018313003083160313FB
:1000600087008312A000A0008316870183128701F6
:100070000030A00083168701013083128700023010
:10008000A1009630A2000420A10B41280030A0005E
:1000900083168701023083128700A1009630A200E8
:1000A0000420A10B4E280030A000831687010430E5
:1000B000831287000230A1009630A2000420A10B19
:1000C0005C280030A0008316870108308312870067
:1000D0000230A1009630A2000420A10B6A28003053
:1000E000A000831687011030831287000230A10020
:1000F0009630A2000420A10B78280030A0008316BF
:1001000087012030831287000230A1009630A200C0
:100110000420A10B86280030A00083168701403000
:10012000831287000230A1009630A2000420A10BA8
:1001300094280030A0008316870180308312870046
:100140000230A1009630A2000420A10BA22838287A
:0201500063004A
:04400E00E22FFF3F5F
:00000001FF
;PIC16F887
;CRC=25A0  CREATED="05-Nov-18 09:44"
