:1000000001308A0035290000220B0A288316891046
:1000100083128914A208031D1128831689108312E4
:100020008910080083160910831209148316091019
:100030008312091008000130A200042012200800D9
:1000400083160911831209158316091183120911E8
:100050003230A200223084008313000803193D28A7
:100060000630F800F701F70B3328F80B32287B3005
:10007000F700F70B3928800B30280800A201042074
:100080001220A0012008053C031C4C280130A200CE
:1000900004201220A00A42280800A0012008033CE6
:1000A000031C5728A20104201220A00A4E28A001F8
:1000B0002008013C031C62280130A2000420122009
:1000C000A00A5828A2010420122008000130A20032
:1000D00004201220A20104201220A0012008013CCB
:1000E000031C78280130A20004201220A00A6E28E8
:1000F000A20104201220A0012008013C031C862834
:100100000130A20004201220A00A7C28080001303F
:10011000A20004201220A0012008013C031C952805
:10012000A20104201220A00A8C28A0012008033C70
:10013000031CA0280130A20004201220A00A962847
:100140000800A0012008013C031CAC280130A200DB
:1001500004201220A00AA228A0012008013C031CB0
:10016000B628A20104201220A00AAD28A001200870
:10017000013C031CC1280130A20004201220A00A67
:10018000B728A201042012200800A0012008013C89
:10019000031CD0280130A20004201220A00AC62887
:1001A000A20104201220A0012008013C031CDE282B
:1001B0000130A20004201220A00AD428A2010420A9
:1001C00012200130A200042012200800A001200803
:1001D000043C031CF1280130A20004201220A00AD4
:1001E000E728A201042012200130A20004201220DE
:1001F0000800A0012008033C031C0329A2010420DD
:100200001220A00AFA28A0012008023C031C0E2993
:100210000130A20004201220A00A04290800A00135
:100220002008063C031C1A290130A20004201220D9
:10023000A00A10290800A0012008013C031C26295F
:100240000130A20004201220A00A1C29A2010420CF
:100250001220A0012008033C031C34290130A20015
:1002600004201220A00A2A29080003081F3983004D
:10027000A001A101831603170908C03989000313DF
:100280001F129F1200300317880083128701880114
:100290008901831383160313091089100911891129
:1002A0008312A0012008063C031C5B29A201042044
:1002B0001220A00A52291B20A0012008063C031C82
:1002C0006629A20104201220A00A5D292020A10194
:1002D0002108093C031C232BA108031D97293E205C
:1002E0001B203E2020204D201B203E202020662069
:1002F0001B203E20202087201B203E202020A120E4
:100300001B203E202020C5201B203E202020E62050
:100310001B203E202020F9201B203E2020200F21E2
:100320001B203E2020201B211B203E202020210BB3
:10033000C1293E201B204D2020204D201B204D2078
:10034000202066201B204D20202087201B204D20B0
:100350002020A1201B204D202020C5201B204D2027
:100360002020E6201B204D202020F9201B204D209E
:1003700020200F211B204D2020201B211B204D2041
:1003800020202108023C031DED293E201B20662071
:1003900020204D201B206620202066201B20662068
:1003A000202087201B2066202020A1201B206620E3
:1003B0002020C5201B2066202020E6201B20662050
:1003C0002020F9201B20662020200F211B206620E2
:1003D00020201B211B20662020202108033C031D18
:1003E000192A3E201B20872020204D201B208720FB
:1003F000202066201B208720202087201B2087208C
:100400002020A1201B2087202020C5201B20872002
:100410002020E6201B2087202020F9201B20872079
:1004200020200F211B20872020201B211B2087201C
:1004300020202108043C031D452A3E201B20A1202A
:1004400020204D201B20A120202066201B20A12041
:10045000202087201B20A1202020A1201B20A120BC
:100460002020C5201B20A1202020E6201B20A12029
:100470002020F9201B20A12020200F211B20A120BB
:1004800020201B211B20A12020202108053C031D2A
:10049000712A3E201B20C52020204D201B20C52076
:1004A000202066201B20C520202087201B20C5205F
:1004B0002020A1201B20C5202020C5201B20C520D6
:1004C0002020E6201B20C5202020F9201B20C5204D
:1004D00020200F211B20C52020201B211B20C520F0
:1004E00020202108063C031D9D2A3E201B20E620DB
:1004F00020204D201B20E620202066201B20E62007
:10050000202087201B20E6202020A1201B20E62081
:100510002020C5201B20E6202020E6201B20E620EE
:100520002020F9201B20E62020200F211B20E62080
:1005300020201B211B20E62020202108073C031D32
:10054000C92A3E201B20F92020204D201B20F92005
:10055000202066201B20F920202087201B20F92046
:100560002020A1201B20F9202020C5201B20F920BD
:100570002020E6201B20F9202020F9201B20F92034
:1005800020200F211B20F92020201B211B20F920D7
:1005900020202108083C031DF52A3E201B200F21A6
:1005A00020204D201B200F21202066201B200F2102
:1005B000202087201B200F212020A1201B200F217D
:1005C0002020C5201B200F212020E6201B200F21EA
:1005D0002020F9201B200F2120200F211B200F217C
:1005E00020201B211B200F2120202108093C031D56
:1005F000212B3E201B201B2120204D201B201B21B6
:10060000202066201B201B21202087201B201B214F
:100610002020A1201B201B212020C5201B201B21C6
:100620002020E6201B201B212020F9201B201B213D
:1006300020200F211B201B2120201B211B201B21E0
:0A0640002020A10A68296729630041
:04400E00E22FFF3F5F
:00000001FF
;PIC16F887
;CRC=37F6  CREATED="06-Nov-18 11:15"
