:1000000000308A000428000003081F398300A00183
:10001000A101831603170908C039890003131F12B1
:100020009F1200300317880083128701880189011D
:100030008313F73083160313880083128811831605
:10004000881108148312081C27280130A000831689
:1000500088148312881C2D28A101831608140030EF
:100060008312081C0130A300200B372839280030E8
:100070003A2801302305031944288815831688116E
:1000800001308312A100A001A108031D4B28881193
:0C00900083168811831283162128630058
:04400E00E22FFF3F5F
:00000001FF
;PIC16F887
;CRC=B197  CREATED="06-Nov-18 07:33"
