:1000000000308A004D2800000A108A100A11820769
:100010008034F23448346034323424340434F034DC
:1000200000342034230824068039A600A31F1A2890
:10003000A309A30AA41F1E28A409A40A2408F801DE
:100040002302031826282308F7003228F701083076
:10005000A500A30DF70D240877020318F700F80D8B
:10006000A50B2928A61F3628F809F80A080023300E
:1000700084008313000803194A280630F800F701AA
:10008000F70B4028F80B3F287B30F700F70B46288A
:10009000800B3D288A110A12912803081F3983001A
:1000A000FF30A200831603170908C0398900031323
:1000B0001F129F12003003178800831287018801E6
:1000C0008901831300308316031387008312A20073
:1000D000831688008312A001A01B72282008633CAD
:1000E000031C93282008A3000A30A40012207808DB
:1000F0000420A3000030A200831687018312230886
:1001000087002008A3000A30A400122077080420EA
:10011000A300831688018312230888003230A300CD
:0A0120003728A00A6C286B28630042
:04400E00E22FFF3F5F
:00000001FF
;PIC16F887
;CRC=5387  CREATED="04-Nov-18 16:29"
