:1000000000308A004B2800000A108A100A1182076B
:10001000C034F934A434B034993492348234F8348E
:100020008034903425308400831300080319252878
:100030000630F800F701F70B1B28F80B1A287B3065
:10004000F700F70B2128800B182808002508260642
:100050008039A800A51F2E28A509A50AA61F3228A9
:10006000A609A60A2608F801250203183A28250839
:10007000F7004628F7010830A700A50DF70D260860
:1000800077020318F700F80DA70B3D28A81F4A2890
:10009000F809F80A080003081F398300FF30A4009C
:1000A000831603170908C039890003131F129F1212
:1000B00000300317880083128701880189018313A8
:1000C00000308316031387008312A4008316880070
:1000D0008312A2010130A3000030A400831687011F
:1000E000C030831287008316880183128800323063
:1000F000A50012200030A40083168701C0308312AF
:10010000870083168801F930831288003230A500F9
:1001100012200230A000A01B91282008633C031C81
:10012000B92823082207A1002308A2002108A30060
:100130002108A5000A30A600262078080420A50082
:100140000030A40083168701831225088700210848
:10015000A5000A30A600262077080420A5008316F3
:1001600088018312250888003230A5001220A00AD9
:060170008B286C286300DF
:04400E00E22FFF3F5F
:00000001FF
;PIC16F887
;CRC=F3AD  CREATED="04-Nov-18 00:54"
