:1000000000308A0018280000213084008313000883
:10001000031917280630F800F701F70B0D28F80B25
:100020000C287B30F700F70B1328800B0A280800F8
:1000300003081F398300FF30A00083160317090847
:10004000C039890003131F129F1200300317880064
:1000500083128701880189018313003083160313FB
:1000600087008312A000A0008316870183128701F6
:100070000030A00083168701FF3083128700C8304C
:10008000A10004200030A00083168701831287019D
:0A009000C830A100042038286300E6
:04400E00E22FFF3F5F
:00000001FF
;PIC16F887
;CRC=05CA  CREATED="05-Nov-18 09:34"
