:1000000001308A0040290000220B0C28A110210891
:100010008316870083128714A208031D1528A110D8
:1000200021088316870083128710080021102108F9
:100030008316870083120714211021088316870076
:100040008312071008000130A20004201620A0012E
:100050002008053C031C3128A20104201620A00A18
:10006000282808000130A2000420162008002111D1
:100070002108831687008312071521112108831692
:100080008700831207110230A200FA30A300233048
:1000900084008313000803195A280630F800F7017A
:1000A000F70B5028F80B4F287B30F700F70B56283A
:1000B000800B4D28A20B45280800A0012008033C16
:1000C000031C68280130A20004201620A00A5E2824
:1000D000A0012008013C031C7228A2010420162064
:1000E000A00A69280130A200042016200800A201FD
:1000F000042016200130A20004201620A0012008B0
:10010000013C031C8828A20104201620A00A7F2895
:100110000130A20004201620A0012008013C031C8D
:100120009628A20104201620A00A8D280800A2010A
:1001300004201620A0012008013C031CA528013042
:10014000A20004201620A00A9B28A0012008033C3E
:10015000031CAF28A20104201620A00AA62808002C
:10016000A0012008013C031CBA28A201042016208B
:10017000A00AB128A0012008013C031CC5280130B9
:10018000A20004201620A00ABB28A0012008013CE0
:10019000031CCF28A20104201620A00AC628013083
:1001A000A200042016200800A0012008013C031C26
:1001B000DE28A20104201620A00AD5280130A200C2
:1001C00004201620A0012008013C031CEC28A201F9
:1001D00004201620A00AE3280130A20004201620E3
:1001E000A201042016200800A0012008043C031CE2
:1001F000FE28A20104201620A00AF5280130A20042
:1002000004201620A201042016200800A0012008C6
:10021000033C031C11290130A20004201620A00A6F
:100220000729A0012008023C031C1B29A20104206D
:100230001620A00A12290800A0012008063C031C71
:100240002629A20104201620A00A1D290800A001C9
:100250002008013C031C3129A20104201620A00A19
:1002600028290130A20004201620A0012008033C08
:10027000031C3F29A20104201620A00A36290800E9
:1002800003081F398300A001FF30A1008316031764
:100290000908C039890003131F129F120030031789
:1002A00088008312870188018901831303132320A7
:1002B0003220232037205D2032205D203720772018
:1002C0003220772037209720322097203720B02007
:1002D0003220B0203720D4203220D4203720F42000
:1002E0003220F420372006213220062137201C211D
:1002F00032201C213720272132202721372057295F
:02030000630098
:04400E00E22FFF3F5F
:00000001FF
;PIC16F887
;CRC=5E68  CREATED="05-Nov-18 21:48"
