:1000000001308A007A2900000A108A100A1182073A
:10001000C034F934A434B034993492348234F8348E
:100020008034903461326310F630EC3AE51EA01251
:10003000301A6C320D05000025308400831300084F
:1000400003192F280630F800F701F70B2528F80BC5
:1000500024287B30F700F70B2B28800B22288A11ED
:100060000A12E5290B08A6008B13831603178C17B9
:100070000C140000000083120313A61B8B17031837
:100080006A2803170C087F390313A60003170D080D
:100090000313A70003170F080313A80026080C1E5C
:1000A0004F289900270803178D000313280803170A
:1000B0008F0003130B08A9008B13831603178C17EB
:1000C0000C140000000083120313A91B8B17A50B4F
:1000D0006A288A2803170C0D0E0D7F390313A6001A
:1000E00003170D080313A70003170F080313A80035
:1000F00026080C1E79289900270803178D00031382
:10010000280803178F008D0A03198F0A03100313A1
:10011000A50B32288A110A12EF29AD010408AC00A0
:100120002D10831B2D14A61F9D28AC172C1EAC0A66
:10013000A509A609A50A0319A60A260EF038A800E3
:10014000A807E23EA900323EAB0026080F39A907F6
:10015000A907AB07E93EAA00AA07AA07250E0F398F
:10016000AA07AB07AA0DAB0DAB09AB0D25080F39DC
:10017000AB07A80D0730A7000A30AB07AA03031C82
:10018000BD28AA07A903031CC128A907A803031CAB
:10019000C528A807A703031CC92827308400831398
:1001A00007302C052C1384032C05031DDE282C1A84
:1001B000840A2C1ADE282030F700FB2884072B3015
:1001C000040203192C170008F700031DEF282C1B4D
:1001D000EF282C1AFF28AC19EF282030FA28AC1F82
:1001E000F7282D30F70084032C13AC13FB28AC1533
:1001F0002C123030F70777080C1EFC289900840A6F
:100200002C1FDF288A110A12F6291030A900F701E5
:10021000FA01A60CA50C031C13292708F7070318DD
:10022000FA0A2808FA07FA0CF70CF90CF80CA90BD3
:1002300009298A110A12062AF801F901F701FA01BF
:100240002A08031D26292908031940291030AB006C
:100250000310A70DA80DF70DFA0D2A087A02031D49
:10026000332929087702031C3C292908F702031CBB
:10027000FA032A08FA020314F80DF90DAB0B28292A
:1002800008002308A8002208A700AA010A30A90034
:100290001C217708A5007A08A600FA007708042038
:1002A000A700831685018312270885002308A8006C
:1002B0002208A700AA010A30A9001C217908A6007B
:1002C0007808A5007908A8007808A700AA010A30D4
:1002D000A9001C217708A5007A08A600FA00770873
:1002E0000420A700831686018312270886008A113E
:1002F0000A12182A03081F3983008316031787156B
:1003000008300313990002309A00A630980090300C
:1003100083129800FF30A400831603170908C03920
:10032000890003131F129F120030031788008312E5
:100330008701880189018313003083160313850028
:100340008600FF3087008312A400831688000914FA
:1003500089140915891583121F179F1383169F1778
:1003600083121F14831603170908C0398900031369
:100370001F129F128030031788000C30F800831280
:1003800003131F08C33978049F00A301A201A00A28
:100390000319A10A2108003C0318E229FF3A031DB2
:1003A000D52920082C3C0318E2299F149F18D62930
:1003B00083161E088312A2071E0803181E0FA30728
:1003C000A101A0010130A5001C28123003178D00E7
:1003D00000308F0003100B300313A50032280A30C1
:1003E00084002308A6002208A5008D280D300C1ECD
:1003F000F72999000A300C1EFB2999002308A60052
:100400002208A500A8016330A70005297908A600E5
:100410007808A5007908A8007808A7000330AA008A
:10042000FF30A9001C217908A3007808A200412907
:04043000C529630077
:04400E00E22FFF3F5F
:00000001FF
;PIC16F887
;CRC=8B46  CREATED="16-Dec-18 22:44"
