:1000000000308A0018280000223084008313000882
:10001000031917280630F800F701F70B0D28F80B25
:100020000C287B30F700F70B1328800B0A280800F8
:1000300003081F398300FF30A00083160317090847
:10004000C039890003131F129F1200300317880064
:1000500083128701880189018313003083160313FB
:1000600087008312A000A00083168701FF3083124F
:1000700087000030A00083168701FC3083128700C0
:100080000230A1009630A2000420A10B42280030CB
:10009000A00083168701F930831287000230A10087
:1000A0009630A2000420A10B50280030A000831637
:1000B0008701F330831287000230A1009630A2003E
:1000C0000420A10B5E280030A00083168701E730D2
:1000D000831287000230A1009630A2000420A10BF9
:1000E0006C280030A00083168701CF308312870070
:1000F0000230A1009630A2000420A10B7A28003023
:10010000A000831687019F30831287000230A10070
:100110009630A2000420A10B88280030A00083168E
:1001200087013F30831287000230A1009630A20081
:100130000420A10B96280030A000831687017E3092
:10014000831287000230A1009630A2000420A10B88
:06015000A4283928630019
:04400E00E22FFF3F5F
:00000001FF
;PIC16F887
;CRC=FB28  CREATED="05-Nov-18 10:12"
