:1000000000308A0018280000213084008313000883
:10001000031917280630F800F701F70B0D28F80B25
:100020000C287B30F700F70B1328800B0A280800F8
:1000300003081F398300FF30A00083160317090847
:10004000C039890003131F129F1200300317880064
:1000500083128701880189018313FF3083160313FC
:1000600087008312A0000030A00083168701903023
:10007000831287006430A10004200030A0008316A2
:1000800087018130831287006430A1000420003092
:10009000A000831687017230831287006430A100AC
:1000A00004200030A000831687016330831287008C
:1000B0006430A10004200030A00083168701543072
:1000C000831287006430A10004200030A000831652
:1000D00087014530831287006430A100042000307E
:1000E000A000831687013630831287006430A10098
:1000F00004200030A0008316870127308312870078
:100100006430A10004200030A0008316870118305D
:10011000831287006430A10004200030A000831601
:1001200087010930831287006430A100042033283E
:0201300063006A
:04400E00E22FFF3F5F
:00000001FF
;PIC16F887
;CRC=747B  CREATED="05-Nov-18 18:57"
