:1000000000308A005B2800000A108A100A1182075B
:100010000034013402340334043405340634073424
:10002000083409340A108A100A1182070034103487
:100030002034303440345034603470348034903460
:10004000230824068039A600A31F2828A309A30A91
:10005000A41F2C28A409A40A2408F80123020318C9
:1000600034282308F7004028F7010830A500A30D25
:10007000F70D240877020318F700F80DA50B3728B1
:10008000A61F4428F809F80A0800223084008313C8
:100090000008031958280630F800F701F70B4E281E
:1000A000F80B4D287B30F700F70B5428800B4B28BA
:1000B0008A110A12982803081F398300FF30A10013
:1000C000831603170908C039890003131F129F12F2
:1000D0000030031788008312870188018901831388
:1000E000FF308316031387008312A100A001A01B19
:1000F0007D282008633C031C9A282008A3000A30AE
:10010000A400202078080420A2002008A3000A30C0
:10011000A400202077081220F800A2070030A100D8
:10012000831687018312220887003230A2004528F7
:08013000A00A7728762863007D
:04400E00E22FFF3F5F
:00000001FF
;PIC16F887
;CRC=E1BB  CREATED="08-Nov-18 17:28"
