:1000000000308A00A6280000D0212029C520C42C59
:100010000D004F27B10600014F23C6180D004F27D2
:10002000B20600014F2346190D004F27B306000109
:100030004F23C6190D004F27B40600014F23461A5F
:100040000D003A3084008313000803193428063069
:10005000F800F701F70B2A28F80B29287B30F70066
:10006000F70B3028800B27280800800803194B283D
:10007000BB010408BA003B10831B3B1400080C1E94
:100080003F2899003A08840083133B188317840A99
:100090000319850A35288A110A12F5280B08BA00B7
:1000A0008B13831603178C170C14000000008312A7
:1000B0000313BA1B8B1703170C087F390319A428E5
:1000C0000313BA0003170D080313BB0003170F082F
:1000D0000313BC003A080C1E6B2899003B08031759
:1000E0008D0003133C0803178F0003130B08BD009A
:1000F0008B13831603178C170C1400000000831257
:100100000313BD1B8B1703170C0D0E0D7F3903193D
:10011000A4280313BA0003170D080313BB00031729
:100120000F080313BC003A080C1E942899003B08E2
:1001300003178D0003133C0803178F008D0A031962
:100140008F0A03134E2803170313080003081F39EF
:1001500083008316031787150830031399000230B4
:100160009A00A6309800903083129800A001A10157
:10017000A201A301B901B801831603170908C03908
:10018000890003131F129F12003003178800831287
:1001900087018801890183134D300313A400433084
:1001A000A5005530A6002030A7005230A8004530E9
:1001B000A9004130AA004430AB005930AC00AD0179
:1001C0000030831688008801FF30831288000030D9
:1001D000831686008601FF30831286000A30BA003B
:1001E000212024308400831335280D300C1EF6287E
:1001F00099000A300C1EFA2899008C1E13298C1EB7
:10020000FF281A08B800043003178D0000308F0053
:1002100003134E2083168601C03083128600831696
:10022000880183128800A0080319182900301929B1
:100230000130BA008316051400308312051801300E
:100240003A05031925290130A000200B28292A2965
:1002500000302B290130BA008316051400308312B8
:10026000051C01303A05031937290230A000A10806
:1002700003193C2900303D290130BA00831685144A
:1002800000308312851801303A05031949290130DD
:10029000A100210B4C294E2900304F290130BA0012
:1002A0008316851400308312851C01303A0503192A
:1002B0005B290230A100A2080319602900306129DE
:1002C0000130BA008316051500308312051901307C
:1002D0003A0503196D290130A200220B70297229F9
:1002E000003073290130BA008316051500308312DF
:1002F000051D01303A0503197F290230A200A30829
:1003000003198429003085290130BA008316851528
:1003100000308312851901303A0503199129013003
:10032000A300230B94299629003097290130BA00A5
:100330008316851500308312851D01303A05031997
:10034000A3290230A300200BAC29093003178D002C
:1003500000308F0003134E206430BA0021202008A3
:10036000023C031DBB290C3003178D0000308F00A9
:1003700003134E20A001210BC4290F3003178D0059
:1003800000308F0003134E206430BA002120210872
:10039000023C031DD329123003178D0000308F005B
:1003A00003134E20A101220BDC29153003178D0009
:1003B00000308F0003134E206430BA002120220841
:1003C000023C031DEB29183003178D0000308F000D
:1003D00003134E20A201230BF4291B3003178D00B9
:1003E00000308F0003134E206430BA002120230810
:1003F000023C031D032A1E3003178D0000308F00BE
:0A04000003134E20A301FD28630042
:04400E00E22FFF3F5F
:00000001FF
;PIC16F887
;CRC=3586  CREATED="16-Dec-18 20:30"
