:1000000000308A001828000026308400831300087E
:10001000031917280630F800F701F70B0D28F80B25
:100020000C287B30F700F70B1328800B0A280800F8
:1000300003081F398300A001A101A301A201A501AA
:10004000A401831603170908C039890003131F127E
:100050009F120030031788008312870188018901ED
:100060008313C73083160313880083128811831605
:1000700088118312A00803193F280030402801305E
:10008000A6008316081400308312081801302605D4
:1000900003194C280130A000200B4F2851280030B4
:1000A00052280130A6008316081400308312081C61
:1000B0000130260503195E280230A0002008023C0A
:1000C00003196428003065280130A600831608143F
:1000D00000308312081801302605031971280330F7
:1000E000A0002008033C031977280030782801304D
:1000F000A6008316081400308312081C0130260560
:10010000031984280430A0002008043C03198A281D
:1001100000308B280130A6008316081400308312AB
:10012000081801302605031997280530A00020087B
:10013000053C03199D2800309E280130A600831637
:10014000081400308312081C013026050319AA2860
:100150000630A0002008063C0319B0280030B12862
:100160000130A600831608140030831208180130ED
:1001700026050319BD280730A0002008073C0319F5
:10018000C3280030C4280130A600831608140030AC
:100190008312081C01302605031DA001A0080319C5
:1001A000A101200BD428A1012008023C031DDA285C
:1001B0000130A1002008033C031DE0280130A1000C
:1001C0002008043C031DE6280230A1002008053C5D
:1001D000031DEC280230A1002008063C031DF22874
:1001E0000330A1002008073C031DF8280330A100BC
:1001F000A108031D0729881183168811831208128C
:100200008316081283128812831688128312210B18
:100210001F298815831688110A308312A60004202E
:100220008811831688110A308312A6000420081250
:1002300083160812831288128316881283122108EB
:10024000023C031D39298811831688118312081670
:10025000831608120A308312A6000420081283169F
:1002600008120A308312A60004208812831688120E
:1002700083122108033C031D53298811831688111A
:1002800083120812831608128312881683168812A6
:100290000A308312A60004208812831688120A30BE
:0A02A0008312A60004203A28630030
:04400E00E22FFF3F5F
:00000001FF
;PIC16F887
;CRC=3081  CREATED="07-Nov-18 20:32"
