:1000000001308A003C290000230B0C28A210220892
:100010008316870083128714A308031D1528A210D6
:1000200022088316870083128710080022102208F6
:100030008316870083120714221022088316870074
:100040008312071008000130A30004201620A0012D
:100050002008053C031C3128A30104201620A00A17
:10006000282808000130A3000420162008002211CF
:10007000220883168700831207152211220883168F
:100080008700831207113230A300233084008313CA
:100090000008031958280630F800F701F70B4E281E
:1000A000F80B4D287B30F700F70B5428800B4B28BA
:1000B0000800A0012008033C031C64280130A300B1
:1000C00004201620A00A5A28A0012008013C031C85
:1000D0006E28A30104201620A00A65280130A30081
:1000E000042016200800A301042016200130A300DC
:1000F00004201620A0012008013C031C8428A30131
:1001000004201620A00A7B280130A300042016201A
:10011000A0012008013C031C9228A3010420162002
:10012000A00A89280800A30104201620A0012008A5
:10013000013C031CA1280130A30004201620A00AC2
:100140009728A0012008033C031CAB28A30104202E
:100150001620A00AA2280800A0012008013C031CC8
:10016000B628A30104201620A00AAD28A00120086B
:10017000013C031CC1280130A30004201620A00A62
:10018000B728A0012008013C031CCB28A3010420B0
:100190001620A00AC2280130A3000420162008005F
:1001A000A0012008013C031CDA28A301042016202A
:1001B000A00AD1280130A30004201620A0012008A5
:1001C000013C031CE828A30104201620A00ADF2814
:1001D0000130A30004201620A301042016200800EB
:1001E000A0012008043C031CFA28A30104201620C7
:1001F000A00AF1280130A30004201620A301042046
:1002000016200800A0012008033C031C0D29013022
:10021000A30004201620A00A0329A0012008023C04
:10022000031C1729A30104201620A00A0E29080088
:10023000A0012008063C031C2229A301042016204B
:10024000A00A19290800A0012008013C031C2D293F
:10025000A30104201620A00A24290130A3000420B1
:100260001620A0012008033C031C3B29A301042005
:100270001620A00A3229080003081F398300A001B4
:10028000A101FF30A200831603170908C0398900B5
:1002900003131F129F120030031788008312870177
:1002A0008801890183130313A1012108093C031C60
:1002B000102BA108031D842923203220232037205E
:1002C000592032202320372073203220232037204A
:1002D0009320322023203720AC20322023203720C7
:1002E000D020322023203720F02032202320372036
:1002F00002213220232037201821322023203720CA
:100300002321322023203720210BAE292320322025
:10031000592037205920322059203720732032208D
:10032000592037209320322059203720AC2032200A
:1003300059203720D020322059203720F020322079
:10034000592037200221322059203720182132200D
:100350005920372023213220592037202108023C00
:10036000031DDA2923203220732037205920322020
:1003700073203720732032207320372093203220BF
:1003800073203720AC20322073203720D020322039
:1003900073203720F02032207320372002213220B2
:1003A0007320372018213220732037202321322058
:1003B000732037202108033C031D062A2320322006
:1003C0009320372059203220932037207320322069
:1003D000932037209320322093203720AC203220E6
:1003E00093203720D020322093203720F020322055
:1003F00093203720022132209320372018213220E9
:100400009320372023213220932037202108043CD9
:10041000031D322A23203220AC20372059203220DD
:10042000AC20372073203220AC203720932032209C
:10043000AC203720AC203220AC203720D020322016
:10044000AC203720F0203220AC203720022132208F
:10045000AC20372018213220AC2037202321322035
:10046000AC2037202108053C031D5E2A23203220C2
:10047000D020372059203220D0203720732032203E
:10048000D020372093203220D0203720AC203220BB
:10049000D0203720D0203220D0203720F02032202A
:1004A000D020372002213220D020372018213220BE
:1004B000D020372023213220D02037202108063CAD
:1004C000031D8A2A23203220F02037205920322091
:1004D000F020372073203220F02037209320322064
:1004E000F0203720AC203220F0203720D0203220DE
:1004F000F0203720F0203220F02037200221322057
:10050000F020372018213220F020372023213220FC
:10051000F02037202108073C031DB62A2320322073
:100520000221372059203220022137207320322027
:10053000022137209320322002213720AC203220A4
:1005400002213720D020322002213720F020322013
:1005500002213720022132200221372018213220A7
:100560000221372023213220022137202108083C94
:10057000031DE22A2320322018213720592032205F
:100580001821372073203220182137209320322061
:1005900018213720AC20322018213720D0203220DB
:1005A00018213720F0203220182137200221322054
:1005B00018213720182132201821372023213220FA
:1005C000182137202108093C031D0E2B232032203F
:1005D0002321372059203220232137207320322035
:1005E000232137209320322023213720AC203220B2
:1005F00023213720D020322023213720F020322021
:1006000023213720022132202321372018213220B4
:10061000232137202321322023213720A10A5529E5
:0406200054296300F6
:04400E00E22FFF3F5F
:00000001FF
;PIC16F887
;CRC=A6E4  CREATED="05-Nov-18 23:49"
