:1000000000308A0018280000223084008313000882
:10001000031917280630F800F701F70B0D28F80B25
:100020000C287B30F700F70B1328800B0A280800F8
:1000300003081F398300FF30A00083160317090847
:10004000C039890003131F129F1200300317880064
:1000500083128701880189018313FF3083160313FC
:1000600087008312A0000030A0008316870183124E
:1000700087010230A100FA30A2000420A10B3B2826
:100080000030A000831687011130831287000230F0
:10009000A100FA30A2000420A10B49280030A000E2
:1000A000831687012230831287000230A100FA30C4
:1000B000A2000420A10B57280030A000831687015E
:1000C0003330831287000230A100FA30A2000420EE
:1000D000A10B65280030A0008316870144308312ED
:1000E00087000230A100FA30A2000420A10B73287F
:1000F0000030A0008316870155308312870002303C
:10010000A100FA30A2000420A10B81280030A00039
:10011000831687016630831287000230A100FA300F
:10012000A2000420A10B8F280030A00083168701B5
:100130007730831287000230A100FA30A200042039
:10014000A10B9D280030A000831687018830831200
:1001500087000230A100FA30A2000420A10BAB28D6
:100160000030A00083168701993083128700023087
:10017000A100FA30A2000420A10BB92833286300A3
:04400E00E22FFF3F5F
:00000001FF
;PIC16F887
;CRC=8BD3  CREATED="05-Nov-18 13:33"
