:1000000000308A000428000003081F398300A00183
:10001000A201A101831603170908C039890003133F
:100020001F129F1200300317880083128701880176
:1000300089018313F7308316031388008312881114
:100040008316881108148312081C4F28831608147D
:100050008312081826280130A000A201A10122085D
:10006000073C031C4F28031D39282108CF3C031CE3
:100070004F28831608148312081C4B288316081473
:100080008312081C4A2888158316881102308312AF
:10009000A0003E284F28A10A0319A20A2F28200BEE
:1000A000552888118316881183128316222863002D
:04400E00E22FFF3F5F
:00000001FF
;PIC16F887
;CRC=53D4  CREATED="07-Nov-18 23:07"
