:1000000000308A000428000003081F398300A00183
:10001000A101A301A201A501A401831603170908E8
:10002000C039890003131F129F1200300317880084
:1000300083128701880189018313C7308316031354
:10004000880083128811831688118312A00803196F
:100050002B2800302C280130A6008316081400300D
:100060008312081801302605031938280130A00032
:10007000200B3B283D2800303E280130A600831687
:10008000081400308312081C0130260503194A2881
:100090000230A0002008023C0319502800305128EB
:1000A0000130A600831608140030831208180130AE
:1000B000260503195D280330A0002008033C03191E
:1000C0006328003064280130A6008316081400302D
:1000D0008312081C01302605031970280430A00083
:1000E0002008043C03197628003077280130A60048
:1000F00083160814003083120818013026050319EE
:1001000083280530A0002008053C03198928003009
:100110008A280130A6008316081400308312081CB8
:1001200001302605031996280630A0002008063C59
:1001300003199C2800309D280130A600831608145E
:10014000003083120818013026050319A92807304A
:10015000A0002008073C0319AF280030B028013068
:10016000A6008316081400308312081C01302605EF
:100170000319BB28A001A008031DBF28A101200B63
:10018000C228A1012008023C031DC8280130A1009B
:100190002008033C031DCE280130A1002008043CA8
:1001A000031DD4280230A1002008053C031DDA28D5
:1001B0000230A1002008063C031DE0280330A10006
:1001C0002008073C031DE6280330A100A108031DF9
:1001D000F5288811831688118312081283160812D5
:1001E00083128812831688128312210B0329881523
:1001F000831688118312081283160812831288123C
:100200008316881283122108023C031D13298811CA
:100210008316881183120816831608128312881217
:100220008316881283122108033C031D2329881199
:1002300083168811831208128316081283128816F7
:0A024000831688128312262863003B
:04400E00E22FFF3F5F
:00000001FF
;PIC16F887
;CRC=E8C1  CREATED="06-Nov-18 22:46"
