:1000000000308A001A28000026308400831300087C
:10001000031917280630F800F701F70B0D28F80B25
:100020000C287B30F700F70B1328800B0A288A1165
:100030000A128A2803081F398300A001A101A30125
:10004000A201A501A401831603170908C03989007C
:1000500003131F129F1200300317880083128701B9
:10006000880189018313F7308316031388008312F4
:1000700088118316881108148312081C4128013046
:10008000A0008316081400308312081C0130A7005A
:10009000200B4B284D2800304E280130270503192E
:1000A00054280130A100A0018316881483128818F7
:1000B000A101A108031D61288811831688118B28CE
:1000C00083122308033C031C7028031D6B2822089D
:1000D000E73C031C70288815831688118228831238
:1000E0002308073C031C7F28031D7A282208CF3CE5
:1000F000031C7F2888118316881182288312A3018C
:10010000A201831601308312A2070318A30A01304B
:0A011000A600042883163B286300B4
:04400E00E22FFF3F5F
:00000001FF
;PIC16F887
;CRC=96AE  CREATED="06-Nov-18 09:56"
